:100000000C9434000C943E000C943E000C943E0082
:100010000C943E000C943E000C943E000C943E0068
:100020000C943E000C943E000C943E000C943E0058
:100030000C943E000C943E000C943E000C943E0048
:100040000C943E000C943E000C943E000C943E0038
:100050000C943E000C943E000C943E000C943E0028
:100060000C943E000C943E0011241FBECFEFD8E04C
:10007000DEBFCDBF0E945F000C9492000C94000084
:100080008FEF84B994B19D7F94B985B987B918B8B9
:100090008AB91BB8089593B1892F827091FD0DC064
:1000A0002FE738E391E0215030409040E1F700C065
:1000B0000000199903C081E0089580E008950E942E
:1000C0004000C1E00E944B008823E1F3C23069F098
:1000D000C330A1F0C130D9F495B181E0892785B949
:1000E00098B182E0892788B912C098B182E0892747
:1000F00088B99BB184E089278BB909C09BB184E0A2
:1001000089278BB995B181E0892785B9C0E0CF5F98
:100110002FEF85EA9EE0215080409040E1F700C03B
:080120000000D0CFF894FFCFDE
:00000001FF
